8=FIX.4.2|9=352|35=f|34=440|49=QA|326=17|52=20111006-16:54:43.399|56=QA_BRIOERIS_u1|324=14567890|22=Eris|55=GOOG|65=CLOB|48=ZB000320141006|460=12|167=IRS|541=29941610|228=50|223=0.7760|876=2|873=90141506|874=20111336|555=2|600=FIXED|599=6M|556=USD|600=FLOAT|601=LIBO|249=20111044|252=0.00380940|253=-2|257=2M-3M|614=1.00000000|599=3M|556=USD|15=USD|10=024|